:020000040000FA
:06000000020B7C02026409
:03002B0002093691
:030033000206D7EB
:030053000201990E
:03006B000206B1D9
:100083000201F8010000000000F8FF07FFFF000075
:10009300070400000003000147726F757000FF043E
:1000A30000100502640A2FAC092FAC09C0C1C2C3FA
:1000B300C4C5C6C7C8C9CACBCCCDCECF5A6967425F
:1000C3006565416C6C69616E636530390100FFFFE2
:1000D300F2E0A161000000000001D283C80CCE0C45
:1000E300DA0CD40C0020FD000206FFFF1E016E1582
:1000F3000000561500000000000000000000000092
:1001030000000000000010202020202020202020BC
:1001130020202020202020010104010001010312DE
:100123008301D083010400002418000000E80300C9
:1001330000FFFF9E180188130000E803000064001D
:100143006400B801A0BB0D00A0BB0D0002020207B2
:10015300040101051E02051E020A0A010101080924
:10016300080103B80B02803E0102FEFFE8030A0503
:100173000001FFFF010A011401E00105030101FF72
:100183000F10FEFF4D2C00000000212B000000008B
:10019300FF000000FF00C0E074F112047BA2AFE493
:1001A30033F509D2AF85A708AFA1EF5508FE741048
:1001B3005E6006120EB475A1EF74085E6008120E3D
:1001C300BA75A1F78024EFA2E092F0E508A2E082DD
:1001D300F05017906198E0F89004BAE0C398A2D267
:1001E30065D0335002E8F075A1FEE509A2E092AFB5
:1001F3007F020204DAC0E074F212047BA2AFE4339C
:10020300FED2AF9061A4E0F8759B00E591585408C5
:1002130060087591F7120F088023E5915854106018
:10022300087591EF120F0E8014E591A2E092F0E8A9
:10023300A2E082F05007E0C2E0F01210589061A3F0
:10024300E0F8E5E9585404600E12102E75E9FB90AE
:100253006193E0A2E640F2EEA2E092AF7F010204D6
:10026300DAC0E074F212047BA2AFE433FED2AF90A3
:1002730061A5E0F8E5BF585404600675BFFB121092
:100283007080D4C3E498F8E499F91202C78026C3B6
:10029300E49AFAE49BFBE920E7E91202C7E498F841
:1002A300E499F922C3E498F8E499F91202C7E498AF
:1002B300F8E499F9C3E49AFAE49BFB22EB20E7CF35
:1002C300E920E7E0B90010BB0008E88AF084F8AA47
:1002D300F022E4FBC8FA22EB70227B10C833C8C9B2
:1002E30033C9335007C39AC3DBF280069A50012AFD
:1002F300DBEAC833F4C8C933F4C9FA2275F008E459
:10030300C833C8C933C933C99AC99B5004C92AC958
:100313003BD5F0ECFBC833F4C8E4C9FA220808085B
:10032300EAC0E0EBC0E086F0E7A4FA180986F0E73C
:10033300A42AFA180986F0E7A42AFA180986F0E72E
:10034300A42AFA1986F0E7A4FBE5F02AFA1908862D
:10035300F0E7A42BFBE5F03AFA190886F0E7A42BA3
:10036300FBE5F03AFA18180986F0E7A4C5F02BFB71
:10037300E43AFA1908E7C5F0C6A426F6E5F03BFB14
:10038300E43AFA1886F0E7A4F6E5F00826F6E43B2B
:1003930008F6E43A08F6D0E0FBD0E0FA22E4CFC056
:1003A300E0E4CEC0E0E4CDC0E0E4CCC0E075F020F2
:1003B300E626F608E633F608E633F608E633F618DB
:1003C3001818EC33FCED33FDEE33FEEF33FFC3ECD3
:1003D3009709ED9709EE9709EF97191919400FFF40
:1003E300EC97FC09ED97FD09EE97FE191906D5F078
:1003F300BFECF709EDF709EEF709EFF7191919D073
:10040300E0FCD0E0FDD0E0FED0E0FF222518C5825D
:10041300C0E0E51934FFC583C0E0E518C395822425
:10042300F810AF088583198582188008858319859C
:100433008218D2AFCEF0A3E520F0A37808E608F047
:10044300A3DEFAEFF0A3E58124FAF8E608F0A3E6C9
:1004530008F0A3E608F0A30808E608F0A3E608F00E
:10046300A315811581D0E0FED0E0F8158115811523
:1004730081E8C0E0EEC0E022C0D02518C582C0E00C
:10048300E51934FFC583C0E0E518C3958224F31052
:10049300AF0885831985821880088583198582189A
:1004A300D2AFC8F0A3E9F0A3EAF0A3EBF0A3790875
:1004B300E709F0A3D8FAECF0A3EDF0A3EEF0A3EF75
:1004C300F0A3D0E0F0A3D0E0F0A3D0E0F0A3E520C8
:1004D300F0A3E5F0F0A322851983851882E0C0E03C
:1004E300A3E0F9A3E0FAA3E0FBA37808E0F608A3EE
:1004F300DFFAE0FCA3E0FDA3E0FEA3E0FFA3E0C07E
:10050300E0A3E0C0E0A3E0F5D0A3E0F520A3E0A3DF
:10051300F5F010AF08858319858218800885831943
:10052300858218D2AFD082D083D0E0F8D0E03212E7
:100533000BF6B90003020571E490040178B579184C
:100543008002F0A3D8FCD9FA7AB57B1B9000867899
:100553001479028015E493A3AD82AE838A828B83E0
:10056300F0A3AA82AB838D828E83D8E9D9E7758203
:10057300577583FD74041208A97582AC75832874BA
:10058300001208A90075F0108E1A8F1B85821F8533
:10059300831E851882851983E0CEA3E0CF851F8251
:1005A300851E83EBC9EAC8EDCBECCAC3E833C8E9BF
:1005B30033C9EA33CAEB33CBC3EA9EF51DEB9FF590
:1005C3001CB35004AB1CAA1DEC33CCED33CDD5F0DA
:1005D300DAAE1AAF1B22D083D082ECC0E0EDC0E0CC
:1005E300E493A3FCE493A3FDED4C600D1206F5EC3C
:1005F30024FFFCED34FFFD80EFE493A3FCE493A31D
:10060300FDED4C600D120792EC24FFFCED34FFFD71
:1006130080EFD0E0FDD0E0FCE493A3C0E0E493C01E
:10062300E022D083D082E9C0E0E493A3C386F0C57F
:10063300F095F0F908E493A386F0C5F095F0700BFC
:10064300E493A3C3994005E9048002A3E475F0028F
:10065300A42582F582E5F03583F583D0E0F9E493B0
:10066300A3C0E0E493C0E022851983851882E0A348
:10067300FEE0A3F5207808E0A3F608DFFAE0A3FF85
:10068300E0A3C0E0E0A3C0E0E0A3C0E0E0A3C0E0DB
:10069300E0A3C0E010AF0885821885831980088520
:1006A3008218858319D2AFD083D0820208AFC0E00D
:1006B30074F212047BA2AFE433FED2AFE589A2E168
:1006C3005003120DCA758900C2C5EEA2E092AF7F36
:1006D300010204DAC0E074F212047BA2AFE433FE39
:1006E300D2AFE58BA2E05003120DCA758B00C2E8AE
:1006F30080D8C0E0C3E49396087401939618400F22
:10070300E49366700808740193661870007019A367
:10071300A3C3E49396087401939618A3A3400DD042
:10072300E0D0E0D0E0020615A3A3A3A3A3A3D0E0E7
:10073300227404800474028000CCC0E0EDC0E0E5C4
:1007430018C39CCCAD1950011D10AF068C188D1920
:1007530080068C188D19D2AF12082BD0E0FDD0E0A3
:10076300FC2274028000CCC0E0EDC0E0E518C39C1D
:10077300CCAD1950011D10AF068C188D1980068C55
:10078300188D19D2AF120809D0E0FDD0E0FC22C0C9
:10079300E0C0F088F0E4936670080874019366186B
:1007A3007000A8F0A3A3700BD0F0D0E0D0E0D0E0AD
:1007B300020615A3A3D0F0D0E022D083D082CCC010
:1007C300E0E493A3600612084C1470FAE493A36068
:1007D300061209C91470FAD0E0FCE493A3C0E0E464
:1007E30093C0E022A2E792D65002F40430F70663E6
:1007F300F0FF05F0B3400384800384F40430D6058E
:1008030063F0FF05F022CAC0E0E493A3C582CCC520
:1008130082C583CDC583F0A3C582CCC582C583CDF4
:10082300C583DAE5D0E0CA22CAC0E0E0A3C582CC22
:10083300C582C583CDC583F0A3C582CCC582C583DC
:10084300CDC583DAE6D0E0CA22C0E0E493A3D39C0B
:100853005010E493A3C39C400AD0E0D0E0D0E00260
:1008630007DAA3A3A3D0E0227009080808226016C0
:10087300181818C6C333C608C633C608C633C60815
:10088300C633C6D5E0EA22C008C3E096F50808A33C
:10089300E096420808A3E096420808A3E0964508BC
:1008A3007001D3D00822C09FF59FE473D09F22D05C
:1008B30083D082C09FE493C0E0740193C0E07402CC
:1008C30093F59F22C5822518C582C583351910AFBC
:1008D30007F5198582188007F519858218D2AFC5E7
:1008E30083227404800A74038006740280027401F4
:1008F300C0E0F404120900D0E0120BB9222518F568
:100903008210AF08F518400C15198008F51840023D
:100913001519D2AF8519832200C0D0251810AF084E
:10092300F518500C05198008F51850020519D2AFB7
:10093300D0D022C0E0C0D0E8C0E0A8A8D2AFC2C7E0
:10094300E8A2E792AFD0E0F8D0D0D0E032BB01020A
:10095300E722C082C08389828A83BB0003E08002CE
:10096300E493D083D082226016080808C6C313C656
:1009730018C613C618C613C618C613C6D5E0EA228E
:100983002518F8E43519F9222518FAE43519FB225C
:100993002518FCE43519FD22C3E0C696F608A3E04A
:1009A300C696F608A3E0C696F608A3E0C696F62216
:1009B300251810AF08F518400C15198008F51840D4
:1009C300021519D2AF22C0E0E493A36C7009D0E002
:1009D300D0E0D0E00207DAA3A3D0E022E7667010EC
:1009E3000809E766700A0809E76670040809E766FC
:1009F30022E066701008A3E066700A08A3E0667040
:100A03000408A3E06622C3E09608A3E09608A3E0E7
:100A13009608A3E096A2D265D03322C3E096F008ED
:100A2300A3E096F008A3E096F008A3E096F022C3B3
:100A3300E4939608740193960874029396087403DA
:100A4300939622C3E697F60809E697F60809E69710
:100A5300F60809E697F622E627F60809E637F608C8
:100A630009E637F60809E637F622E026F608A3E09A
:100A730036F608A3E036F608A3E036F622E493F64A
:100A830008740193F608740293F608740393F6222C
:100A9300E026F008A3E036F008A3E036F008A3E070
:100AA30036F022E056F008A3E056F008A3E056F033
:100AB30008A3E056F022E046F608A3E046F608A3B2
:100AC300E046F608A3E046F622E647F60809E647BD
:100AD300F60809E647F60809E647F622700422609D
:100AE3000D18C6C333C608C633C6D5E0F41822E6CC
:100AF30057F60809E657F60809E657F60809E657D0
:100B0300F622E056F608A3E056F608A3E056F608E8
:100B1300A3E056F622E046F008A3E046F008A3E07F
:100B230046F008A3E046F022E4C396F608E496F6FE
:100B330008E496F608E496F622600D08C6A2E713C9
:100B4300C618C613C6D5E0F322C6F4C608C6F4C653
:100B530008C6F4C608C6F4C622C3E09608A3E09606
:100B630008A3E09608A3E09622C3E7960809E79650
:100B73000809E7960809E7962275D00075813F7545
:100B8300180175190400020532E6F008A3E6F0081F
:100B9300A3E6F008A3E6F022600C08C6C313C61848
:100BA300C613C6D5E0F422E0F608A3E0F608A3E0F6
:100BB300F608A3E0F622CAC0E0E6F0A308DAFAD00A
:100BC300E0FA22E8F0A3E9F0A3EAF0A3EBF022E0D5
:100BD300F8A3E0F9A3E0FAA3E0FB22EAF0A3EBF029
:100BE300A3ECF0A3EDF022E0FAA3E0FBA3E0FCA367
:100BF300E0FD22E5C754F84401F5C7790122251821
:100C0300F582E43519F58322C2AF75D69F02000041
:100C1300221208B20A8A061208B215E0051208B2B7
:100C230091E0051208B2C4E0051208B2F2E0051221
:100C330008B20CE3051208B228E3051208B26DE30B
:100C4300051208B2F2E3051208B23EE4051208B237
:100C5300CEE4051208B2A6E5051208B2F7E50512BF
:100C630008B25CE6051208B2D9E6051208B20FE72E
:100C7300051208B25AE7051208B280E7051208B256
:100C830010E8051208B2A7E8051208B2F3E8051246
:100C930008B224E9051208B25BE9051208B2ECEACE
:100CA300051208B2B6EB051208B290EC051208B2B1
:100CB300A8C8041208B2DBC8041208B223C904127C
:100CC30008B22FCB041208B27FCD041208B2B2CD02
:100CD300041208B281D0041208B218D3041208B265
:100CE300A3D3041208B21FD7041208B2EBD704121D
:100CF30008B25CD9041208B2DED9041208B2AFDA22
:100D0300041208B2ECDC041208B281DD041208B24A
:100D130063DF041208B272E2041208B275E204122D
:100D230008B288E2041208B2D5E2041208B207C07E
:100D3300051208B274C4051208B2D8C4051208B269
:100D4300F9C5051208B2C1C9051208B23ECD051294
:100D530008B218CF051208B266CF051208B221D126
:100D6300051208B2CAD5061208B2DBD5061208B2BC
:100D730079D6061208B291D6061208B2FD7F001288
:100D830008B2ECFF011208B23FD7061208B24FD7E0
:100D9300061208B267D7061208B2CFD7061208B2F6
:100DA300C8D3061208B24BD4061208B2B1D4061245
:100DB30008B2717E001208B2907E001208B2FD7E66
:100DC300001208B2427F001208B29B7F001208B2E1
:100DD30016A7061208B22BA7061208B236A80612E7
:100DE30008B267A8061208B281A8061208B2F7A8CB
:100DF300061208B2DCA9061208B250AA061208B2FB
:100E03006AAA061208B281AA061208B28FAA0612AB
:100E130008B2A7AA061208B2BCAA061208B2E1AA2F
:100E2300061208B231AB061208B2E6B6061208B2D1
:100E3300F4B6061208B26DB7061208B241B806122C
:100E430008B213BA061208B2C7FF021208B27E9D97
:100E5300061208B2AA9D061208B21BA0061208B217
:100E63005BA0061208B29BA0061208B2AFA006123E
:100E730008B2C8A0061208B2B9A1061208B25EA24F
:100E8300061208B272A2061208B2FACF061208B20C
:100E93001ED0061208B237D0061208B269D0061265
:100EA30008B299D0061208B2C6D0061208B228D1E9
:100EB300061208B237D1061208B241D1061208B29F
:100EC3004ED1061208B20AC4061208B22AC4061288
:100ED30008B269C4061208B284C4061208B2A3C4D5
:100EE300061208B209C5061208B212C5061208B2E4
:100EF3006FC5061208B27EC5061208B2A2C5061255
:100F030008B263C6061208B270C6061208B281C6DA
:100F1300061208B222D8061208B23AD8061208B24C
:100F230066D8061208B2C8A2061208B222A4061294
:100F330008B22FA4061208B242A4061208B257A49C
:100F4300061208B26CA4061208B27FA4061208B2F5
:100F5300F3A4061208B258A5061208B2FAA506129F
:100F630008B2BEA6061208B2CEA6061208B2DDA6C5
:100F7300061208B2A6D6061208B2CAD6061208B2DC
:100F8300F2D6061208B21AD7061208B232C90612EE
:100F930008B259C9061208B277C9061208B2EAC9DB
:100FA300061208B237C1061208B250C1061208B2BF
:100FB3005CC1061208B270C1061208B28EC10612D5
:100FC30008B298C1061208B2A2C1061208B2B5C18E
:100FD300061208B23BC2061208B2B0C2061208B229
:100FE300DFC2061208B22DC3061208B27CC3061272
:100FF30008B297C3061208B2A1C3061208B2B2C35D
:10100300061208B2F5C3061208B28BFF051208B226
:101013001D94061208B24794061208B2649406128D
:1010230008B27794061208B28D94061208B2EB94B4
:10103300061208B22395061208B21799061208B2CF
:101043005C9A061208B28F9A061208B2F29A061236
:1010530008B2529C061208B27A9C061208B28F9C00
:10106300061208B29F9C061208B2E39C061208B24D
:101073003E9D061208B24E9D061208B298D2061281
:1010830008B2B2D2061208B2DAD2061208B2F3D20A
:10109300061208B217D3061208B235D3061208B2E5
:1010A3004CD3061208B27AD3061208B295D30612AD
:1010B30008B269D8061208B278BA061208B288BA1A
:1010C300061208B28DBB061208B2BFBB061208B2E5
:1010D300EFBB061208B212BC061208B229BC0612F4
:1010E30008B263BC061208B2C8BC061208B20ABD35
:1010F300061208B249BD061208B27ABD061208B23A
:10110300A5BD061208B2F5FF031208B2F8FF0312D9
:1011130008B2FBFF031208B2AFC6061208B2CFC66D
:10112300061208B2E3C7061208B204C9061208B2CF
:1011330054FE011208B28AFE011208B2A0FE011287
:1011430008B2E2FE011208B2F2FE011208B201FF78
:10115300011208B245FF011208B2DFFF011208B203
:10116300E9FF011208B2508A061208B25A8A06121F
:1011730008B2858A061208B2CE8A061208B2378BE5
:10118300061208B2548B061208B26D8B061208B20F
:101193000F8C061208B28E8E061208B2978E0612B4
:1011A30008B2DC8E061208B2058F061208B2128F3F
:1011B300061208B2838F061208B20E90061208B206
:1011C3005C90061208B29A90061208B2FF900612BB
:1011D30008B22291061208B29991061208B2F09150
:1011E300061208B22B92061208B26092061208B2D7
:1011F3007292061208B28492061208B2A3920612E1
:1012030008B2AC92061208B26793061208B2B393FF
:10121300061208B2F193061208B258D1061208B2A8
:10122300C4CD061208B2FACD061208B242CE061297
:1012330008B29BCF061208B24CAC051208B270ADCF
:10124300051208B2AAAD051208B254AF051208B2CE
:101253007EAF051208B2F3B1051208B233B205121C
:1012630008B2C9B3051208B266B4051208B2B8B41D
:10127300051208B25BB5051208B293B5051208B2A0
:10128300D5B5051208B244B7051208B292B80512D3
:1012930008B2C3BA051208B2F1BA051208B218BBF4
:1012A300051208B221BB051208B278BB051208B2B9
:1012B3000ABC051208B237BF051208B2BABF05123D
:1012C30008B29BFF031208B2DA7F001208B2F07F64
:1012D300001208B266AB061208B27CAB061208B263
:1012E30020AC061208B25FAC061208B27CAC061240
:1012F30008B2ADAC061208B2FAAC061208B22DADB4
:10130300061208B268AD061208B25DAF061208B243
:10131300CAD4061208B229D5061208B267D5061236
:1013230008B2A8D5061208B20080041208B20C80D5
:10133300041208B25082041208B25A82041208B28C
:10134300F082041208B22C83041208B2E083041260
:1013530008B2F383041208B25484041208B2C0849E
:10136300041208B22A85041208B26285041208B274
:10137300E485041208B28487041208B25389041264
:1013830008B28F8A041208B2028C041208B2A58C28
:10139300041208B26C91041208B26192041208B2EA
:1013A300F692041208B21B93041208B2B793041204
:1013B30008B2CC93041208B2F093041208B26194F9
:1013C300041208B27E94041208B2A894041208B25C
:1013D3003E96041208B25F96041208B205970412EF
:1013E30008B24C97041208B2B597041208B23698A3
:1013F300041208B29A98041208B2F698041208B2BA
:101403009A99041208B20D9A041208B2419A04126E
:1014130008B2A49A041208B2019C041208B2799D7E
:10142300041208B2269E041208B28BA0041208B25A
:1014330000A1041208B22AA1041208B26AA304127A
:1014430008B2E6A5041208B2E5A6041208B275E2D2
:10145300021208B204E3021208B27AE3021208B2DB
:1014630059E4021208B254E5021208B2D1E502129D
:1014730008B20FE7021208B2AAE7021208B281E922
:10148300021208B270EA021208B28DEA021208B21E
:10149300B0EB021208B2F1EC021208B293ED0212A1
:1014A30008B2C5F0021208B2C1F2021208B24BF33D
:1014B300021208B2A5F3021208B2F3F3021208B241
:1014C3006EF4021208B2EBF4021208B22CF5021207
:1014D30008B2AAFB021208B2FBFD021208B2D2FE46
:1014E300021208B2F4D1051208B27ED2051208B274
:1014F300F5D2051208B205D6051208B288D705122F
:1015030008B2B8D9051208B2FDDA051208B258DDDF
:10151300051208B286DD051208B2C4DD051208B251
:101523003DDE051208B2E3DE051208B2F4DE051251
:1015330008B2FBDE051208B28EDF051208B2E0DF47
:10154300051208B283CB061208B2EDCB061208B21D
:10155300A0CC061208B2C0CC061208B202CD061205
:1015630008B227CD061208B22ACD061208B22DCD35
:10157300061208B236CD061208B239CD061208B2E9
:1015830010D9061208B251E3041208B280E3041220
:1015930008B2FCE3041208B24AE5041208B230E6CA
:1015A300041208B2A9E7041208B2CEE7041208B283
:1015B30020E8041208B2A2E8041208B2E9E804120F
:1015C30008B2FCE8041208B253E9041208B219EA9B
:1015D300041208B285EA041208B2AFEA041208B290
:1015E300F8EA041208B27DEC041208B256ED0412B4
:1015F30008B29FEE041208B272EF041208B2FAEFB7
:10160300041208B23DF0041208B257F0041208B2F3
:101613009EF0041208B2BEF0041208B279F104126B
:1016230008B29CF2041208B2F6F2041208B23AF3BA
:10163300041208B236F4041208B2B2F6041208B265
:10164300D1F6041208B246F7041208B26BF704127B
:1016530008B2E8F7041208B2AEF8041208B2EBF8C5
:10166300041208B264F9041208B258FA041208B258
:101673005BFA041208B265FA041208B26FFA041294
:1016830008B282FA041208B2FEFA041208B234FB5A
:10169300041208B247FB041208B273FB041208B227
:1016A3009AFB041208B2BEFB041208B2F9FB04123F
:1016B30008B26BFC041208B293FC041208B29DFC3E
:1016C300041208B2D9FC041208B20EFD041208B2C7
:1016D30024FD041208B2D2D7061208B2EAD70612C2
:1016E30008B2FA7F001208B24DF8051208B29CF84E
:1016F300051208B23CFA051208B2F7FB051208B24C
:1017030039FC051208B258FD051208B262FE051233
:1017130008B284FE051208B2CEFE051208B24FFFCE
:10172300051208B216AB041208B239AB041208B2A0
:10173300A4AC041208B2EDAC041208B247AD041213
:1017430008B2ADAD041208B2B0AD041208B2F3ADE5
:10175300041208B277AE041208B202AF041208B240
:1017630005AF041208B297AF041208B2DAAF04123D
:1017730008B270B4041208B202B6041208B249B631
:10178300041208B2C2B9041208B2F9BA041208B2B8
:10179300D6BB041208B264BC041208B28BBC041298
:1017A30008B210BF041208B2BFC0041208B26DC160
:1017B300041208B2FAC1041208B2E6C2041208B253
:1017C3009DC4041208B2ACC5041208B213C70412B4
:1017D30008B260C7041208B2F5C7041208B27D6AE2
:1017E300001208B21D6B001208B2876B001208B218
:1017F300A06B001208B2226C001208B2786C0012BF
:1018030008B2C56C001208B2246D001208B22F6E24
:10181300001208B24471001208B27672001208B2C4
:10182300F772001208B2F674001208B2A375001220
:1018330008B24976001208B22E77001208B2F9787E
:10184300001208B2617A001208B2717B001208B26A
:10185300137C001208B2327D001208B23BD9031286
:1018630008B2AFD9031208B2F7D9031208B235DAB6
:10187300031208B284DA031208B2CEDA031208B2F2
:1018830006DB031208B284DB031208B2DEDB0312A9
:1018930008B23ADD031208B2C9DD031208B2E0DE72
:1018A300031208B208DF031208B24EE0031208B2B3
:1018B3005FE0031208B277E0031208B281E103127A
:1018C30008B24BE2031208B258E3031208B27CE3F6
:1018D300031208B293E3031208B2B4E3031208B28B
:1018E300D6E3031208B2F3E3031208B2CFE4031200
:1018F30008B227E5031208B2B9E7031208B208E8F1
:10190300031208B227E8031208B206E9031208B269
:101913003CE9031208B254EA031208B2D1EA0312F3
:1019230008B23EEB031208B27AEB031208B2E3EB00
:10193300031208B29DEC031208B25BEE031208B265
:101943005CEF031208B2E1F0031208B2CCF2031207
:1019530008B22FF5031208B2D5F6031208B2A3F7A3
:10196300031208B209F8031208B220F8031208B2EE
:1019730010F9031208B2FCF9031208B269FA031250
:1019830008B2FDBD061208B2A2BF061208B25FC0BC
:10199300061208B2D283061208B26AAF061208B260
:1019A30088AF061208B2CCAF061208B2F2AF061225
:1019B30008B218B0061208B230B0061208B248B026
:1019C300061208B2ABB0061208B2EDB0061208B2A6
:1019D3000FB2061208B218B2061208B221B20612EA
:1019E30008B22AB2061208B234B2061208B206FBD3
:1019F300031208B221FF031208B22FFF031208B229
:101A030034FF031208B27EFE041208B2D289061212
:101A130008B2ADD8061208B2D6FF051208B23BD9F8
:101A2300061208B20080031208B23280031208B211
:101A33009E80031208B23981031208B2D8810312BF
:101A430008B21D82031208B23F82031208B2588201
:101A5300031208B27E82031208B2A082031208B2F4
:101A6300DE82031208B22283031208B244830312F4
:101A730008B2A683031208B26D84031208B2248548
:101A8300031208B29685031208B26886031208B2DD
:101A9300B286031208B20587031208B26B870312DA
:101AA30008B2A587031208B2F787031208B2138896
:101AB300031208B23E88031208B2458A031208B221
:101AC300998B031208B2BB8B031208B2EF8B03127C
:101AD30008B2108C031208B21F8C031208B22A8CAE
:101AE300031208B2DA8C031208B2438D031208B250
:101AF300F08D031208B2288E031208B2EE8E031281
:101B030008B2FB8F031208B24590031208B2D490B7
:101B1300031208B23891031208B27391031208B288
:101B2300DF93031208B23395031208B26C980312C1
:101B330008B23999031208B2C799031208B2F0998F
:101B4300031208B2629A031208B2F69A031208B299
:101B5300549B031208B2469C031208B2689C0312FA
:101B630008B2C49D031208B2DD9D031208B2F09DB2
:101B7300031208B25F9E031208B26B9F031208B2EE
:101B8300789F031208B2819F031208B259A103126E
:101B930008B27FA2031208B28FA2031208B291A364
:101BA300031208B208A4031208B237A4031208B23E
:101BB3003DA5031208B283A5031208B24FA703126F
:101BC30008B227AB031208B231AB031208B245AB1C
:101BD300031208B24FAB031208B259AB031208B297
:101BE30063AB031208B27CAB031208B286AB0312D9
:101BF30008B2FAAB031208B205AC031208B22AAC5E
:101C0300031208B235AC031208B283AC031208B254
:101C13008DAC031208B298AC031208B2BCAC031229
:101C230008B2E0AC031208B23CAD031208B282ADB5
:101C3300031208B29FAD031208B21CAE031208B21E
:101C430053AE031208B292AE031208B2DFAE031210
:101C530008B261AF031208B2FAAF031208B2CAB1F5
:101C6300031208B228B2031208B244B3031208B233
:101C73006AB3031208B2A9B4031208B2CFB70312AE
:101C830008B210BA031208B2ECBB031208B282BC4A
:101C9300031208B2A9BE031208B255BF031208B259
:101CA3008ABF031208B2EFBF031208B2F9BF0312CF
:101CB30008B223C2031208B24AC3031208B28AC38A
:101CC300031208B230C4031208B2C1C5031208B22A
:101CD3004AC7031208B26AC7031208B2C3C7031282
:101CE30008B2C5C8031208B20FC9031208B25FC90C
:101CF300031208B249CA031208B2BECA031208B2D9
:101D0300D8CB031208B253CC031208B258CD031236
:101D130008B203D0031208B222D0031208B283D14F
:101D2300031208B245D3031208B299D3031208B2BF
:101D330051D4031208B200D5031208B256D50312C8
:101D430008B20CD6031208B2A1D6031208B20DD7FB
:101D5300031208B247D7031208B278D7031208B2A6
:101D6300D4D8031208B20080021208B232800212E1
:101D730008B26980021208B25282021208B2358395
:101D8300021208B28D83021208B2C884021208B28A
:101D93001485021208B23C88021208B29E8B02120A
:101DA30008B2EB8C021208B2818D021208B28D8D3B
:101DB300021208B2BF8D021208B2418F021208B29A
:101DC3004F90021208B27990021208B2D090021218
:101DD30008B22991021208B29591021208B2AC938B
:101DE300021208B23B95021208B20596021208B21B
:101DF3004397021208B27399021208B2439C02126B
:101E030008B2509C021208B2D79C021208B27F9DFE
:101E1300021208B2C29D021208B20B9E021208B24D
:101E23005F9E021208B2C49E021208B22C9F0212D5
:101E330008B2499F021208B2799F021208B2AE9FFC
:101E4300021208B27EA0021208B227A1021208B23F
:101E5300ABA3021208B2CBA4021208B2B4A50212B9
:101E630008B236A6021208B258AA021208B295AAFC
:101E7300021208B2EDAA021208B220AB021208B293
:101E8300A1AB021208B2EEAB021208B279AC021295
:101E930008B2CBAC021208B2A2AD021208B25BAE1A
:101EA300021208B2F6AE021208B20FB2021208B260
:101EB3002FB3021208B2E0B6021208B2FEB7021242
:101EC30008B201B8021208B230B8021208B236BA28
:101ED300021208B20FBB021208B244BB021208B2CC
:101EE3004CBC021208B202BD021208B2A3BE021217
:101EF30008B2C8BE021208B207BF021208B279BF05
:101F0300021208B25DC0021208B22AC1021208B25C
:101F130060C3021208B2D1C3021208B211C4021282
:101F230008B272C4021208B235C8021208B224C938
:101F3300021208B20BCA021208B283CA021208B212
:101F430045CB021208B243CD021208B25BCD021296
:101F530008B26FCD021208B2A7CD021208B2D5CDD6
:101F6300021208B25CCF021208B267D0021208B2A2
:101F7300B9D0021208B221D1021208B2D3D102128F
:101F830008B203D2021208B2E7D2021208B298D3FF
:101F9300021208B287D5021208B2BCD5021208B2E7
:101FA30024D6021208B253D7021208B205D802127D
:101FB30008B236D8021208B24ED8021208B2DDD8DF
:101FC300021208B291DB021208B269DD021208B2F2
:101FD30085DD021208B2A1DD021208B26FDE021221
:101FE30008B253E2021208B22DB3061208B26DB35F
:101FF300061208B220B5061208B22FB5061208B2AF
:102003000080051208B21785051208B26285051211
:1020130008B2B287051208B24689051208B2D489FC
:10202300051208B2358C051208B23A8E051208B2B1
:102033008E8E051208B29D90051208B2CE9005123D
:1020430008B20E91051208B22991051208B28491C3
:10205300051208B2A691051208B2AD91051208B295
:10206300C591051208B2A592051208B28493051210
:1020730008B2D883011208B21084011208B2EE88A4
:10208300011208B23489011208B2818A011208B21E
:10209300EC8A011208B2758C011208B2858F011205
:1020A30008B2A090011208B2B29A011208B2459B7D
:1020B300011208B2979E011208B2939F011208B24F
:1020C300EE9F011208B238A1011208B226A2011232
:1020D30008B2C2A4011208B236A6011208B2B9A608
:1020E300011208B2BCA6011208B231A7011208B24C
:1020F3003BA7011208B248A7011208B273A7011245
:1021030008B223A8011208B21CA9011208B2C7A978
:10211300011208B2E5A9011208B2FEA9011208B220
:1021230027AA011208B249AA011208B29EAC0112F1
:1021330008B263AD011208B2A8AD011208B227AE0E
:10214300011208B2D3AE011208B205AF011208B2F0
:1021530059AF011208B294AF011208B2DBAF0112FA
:1021630008B22BB0011208B230B0011208B284B029
:10217300011208B2B0B0011208B299B1011208B24B
:10218300EAB1011208B24AB2011208B2A4B20112B2
:1021930008B23FB3011208B27EB6011208B290B77B
:1021A300011208B20AB9011208B21ABC011208B22C
:1021B300B8BC011208B2AEBF011208B26DC0011261
:1021C30008B2B1C0011208B25CC2011208B270C2F7
:1021D300011208B27AC2011208B284C2011208B213
:1021E30090C2011208B2B5C2011208B28EC4011224
:1021F30008B2E3C4011208B2EDC4011208B2F7C475
:10220300011208B26CC5011208B2BBC5011208B2B3
:10221300CCC6011208B219C7011208B226C80112AE
:1022230008B26AC8011208B210C9011208B203CA7F
:10223300011208B2C9CA011208B2ECCB011208B2EA
:102243000ACD011208B2F2CD011208B20ACE011270
:1022530008B261CE011208B26BCE011208B276CE7B
:10226300011208B294CE011208B2DCCE011208B2F8
:102273003ECF011208B265CF011208B277CF011227
:1022830008B212D0011208B247D0011208B22ED1FF
:10229300011208B273D1011208B259D2011208B265
:1022A30080D2011208B203D3011208B274D301120F
:1022B30008B2FDD4011208B229D6011208B2ECD635
:1022C300011208B2B4D7011208B23ED8011208B203
:1022D30066D9011208B208DA011208B283DA0112D0
:1022E30008B23FDB011208B289DB011208B2E3DB5B
:1022F300011208B2BBDC011208B2DEDC011208B223
:1023030091DD011208B2B3DD011208B21CDE011225
:1023130008B232E0011208B22AE1011208B2EEE17A
:10232300011208B220E4011208B26AE4011208B2F1
:10233300BAE4011208B21EE5011208B280E50112E7
:1023430008B2AEE5011208B2D2E5011208B207E6FF
:10235300011208B238E6011208B26BE6011208B2A4
:10236300BBE6011208B20EE7011208B233E801120C
:1023730008B2D3E9011208B22EEA011208B257EAF1
:10238300011208B2E4EA011208B252EB011208B2D8
:1023930060EB011208B284EB011208B2D9EB01120F
:1023A30008B2F4EB011208B2A6EC011208B2DEEC9B
:1023B300011208B221ED011208B284ED011208B234
:1023C30086EF011208B2B0EF011208B2A7F00112B2
:1023D30008B2B1F1011208B261F2011208B23FF37F
:1023E300011208B277F3011208B298F3011208B28E
:1023F300DAF3011208B23CF4011208B246F40112F6
:1024030008B256F4011208B291F4011208B271F83D
:10241300011208B25EFA011208B244FC011208B2BA
:10242300DBFC011208B27DFD011208B26E3000120E
:1024330008B21931001208B2C731001208B2CD3206
:10244300001208B2ED32001208B21634001208B2BC
:10245300D135001208B24436001208B2E836001231
:1024630008B2F437001208B25F38001208B29B3882
:10247300001208B2DE38001208B21939001208B28D
:102483005B39001208B2F039001208B26C3A00123C
:1024930008B2363B001208B2133C001208B2AB3C40
:1024A300001208B2C53C001208B2F53C001208B293
:1024B300263D001208B2EC3D001208B2FC3D0012AA
:1024C30008B24B3E001208B2583E001208B2613EF9
:1024D300001208B2DF3E001208B23B3F001208B2FE
:1024E300863F001208B2A13F001208B2CC3F00128F
:1024F30008B2E93F001208B2F53F001208B28C415E
:10250300001208B2A541001208B22A42001208B212
:102513003D42001208B25C42001208B200430012AE
:1025230008B28144001208B23446001208B2CA4607
:10253300001208B2CD46001208B23D47001208B29D
:102543005B47001208B2F247001208B23A48001281
:1025530008B23D48001208B20349001208B270499C
:10256300001208B29649001208B2214A001208B2BA
:102573003F4A001208B2854A001208B2394B0012D2
:1025830008B2834B001208B2B24B001208B20F4CD0
:10259300001208B2444C001208B2704C001208B288
:1025A3007E4C001208B2CB4C001208B23B4D001215
:1025B30008B2844D001208B2D04D001208B2FC4D8F
:1025C300001208B2074E001208B2254E001208B2DC
:1025D300104F001208B21A4F001208B2554F0012E2
:1025E30008B2654F001208B2B94F001208B2CD4FBE
:1025F300001208B2FC50001208B21151001208B2C6
:102603009F51001208B2E451001208B27052001236
:1026130008B27B52001208B2BD53001208B2D8535D
:10262300001208B22454001208B29354001208B2E4
:10263300CC54001208B2E654001208B246550012F8
:1026430008B2E555001208B23056001208B200591C
:10265300001208B2B259001208B21F5A001208B28F
:102663005F5C001208B2775C001208B27A5C001259
:1026730008B2865C001208B29A5C001208B2A25C2F
:10268300001208B2D55C001208B2D85D001208B27D
:10269300655E001208B2D55E001208B2575F0012E1
:1026A30008B21860001208B23760001208B2D8608E
:1026B300001208B23561001208B23861001208B284
:1026C300AC61001208B2FB62001208B2016400128E
:1026D30008B28C64001208B2A765001208B26F66D4
:1026E300001208B2A066001208B2C366001208B254
:1026F300CC66001208B2FB66001208B28B670012A8
:1027030008B24168001208B2B668001208B25D69E7
:10271300001208B2D269001208B2096A001208B2A4
:10272300476A001208B22D81061208B27880061299
:1027330008B20080061208B23BAC051208B20BAC1B
:10274300051208B201AC051208B294AB051208B227
:10275300E8A9051208B2A6A9051208B2D8A805125D
:1027630008B2C2A8051208B283A8051208B2DDA7F1
:10277300051208B2CEA4051208B2A1A2051208B22E
:1027830071A2051208B215A2051208B2AFA1051273
:1027930008B26EA1051208B2A0A0051208B23BA0B0
:1027A300051208B2DF9F051208B2829F051208B214
:1027B300209E051208B2BD9D051208B2079D0512A1
:1027C30008B2029D051208B27B89061208B2EB9C7F
:1027D300051208B21A88061208B25C87061208B2FC
:1027E300BF86061208B2B586061208B2AB86061279
:1027F30008B24186061208B2B69C051208B2D999EE
:10280300051208B2D699051208B2BD99051208B28D
:102813002686061208B2B299051208B28E990512DD
:1028230008B2D497051208B25397051208B20F974E
:10283300051208B28885061208B28496051208B2FA
:10284300E4D8061208B202F8051208B2A9F7051275
:1028530008B26BF7051208B23EF7051208B20AF781
:10286300051208B2A9F6051208B291F6051208B2CC
:1028730061F6051208B236F3051208B209F1051222
:1028830008B210EF051208B296EE051208B245EE33
:10289300051208B2FFED051208B29C84061208B2B5
:1028A30069ED051208B2C3C00600000080FBE473A3
:1028B3008F000100A81C87000100A61C350004003E
:1028C3006C1C25000200701C26000200721C2700ED
:1028D3000200741C280001007E1C290001007F1CDB
:1028E300840004002B1986000100C31B2A00010089
:1028F300801C2B000100811C2C000100861C2D0074
:10290300080039192E000100871C2F000100881CC4
:1029130030000100891C310001008A1C32000100D3
:102923004119330001004219340001008B1C3600A9
:1029330001004319380001008C1C39000100851C7B
:1029430083000200A41C630001004E19640001000F
:10295300821C65000100831C6D0001004F1971008A
:102963000800311966000100A31C43000100941CF8
:1029730044000200951C45000100971C460002001C
:10298300981C470008004619480001009A1C4B0098
:1029930001009B1C04000100A71CA1000100AB1C4B
:1029A30037000100AA1C88000100A91C3C0001009B
:1029B30044193D0001008D1C490002009C1C670066
:1029C300010050194D0002009E1C4E000100A01C86
:1029D3004F000200A11C3E000100931C51000100A6
:1029E3008F1C52000100901C53000100921C5400E4
:1029F3000100451900000000000000013636010106
:102A030000010201000103010001040106060502A1
:102A13000000070100340801000F090401010D0142
:102A230000FF0E08000017020000190100FF1A0141
:102A330000011B0100FE1C0100081D0200001F0114
:102A4300000120010001210200002301000F2402E4
:102A530000002601000127010008280200FF2A01C7
:102A630000072B0102402C0100002D0100012E0163
:102A730000012F0100FF30010B1D310800003A0156
:102A830000083B01000F3C0100013D0100FF3E0433
:102A9300000042040000460400004A0400004E0403
:102AA300000052040000560400005A040000000015
:102AB30003002001D583000000002001D48300001F
:102AC30004004201FD82000005004201ED80000088
:102AD30006004201AD82000007003001D6830000EA
:102AE30010004203381C000011003003F8170000E7
:102AF30012001003491C030000002103F917000012
:102B0300FDFF2101CE830300FDFF2101CE830600DB
:102B130000001001EA170600FDFF2181CE830103A7
:102B230071030103010301030103010322030203F0
:102B33000103100300030003000300030003000369
:102B430000034203000324030603000300030403FA
:102B530012032503230325032303040304030003B0
:102B6300000300034403000300032303000365037E
:102B73002100350381030003050300030003000361
:102B830000032503230303027102300160021102D3
:102B930070020102020202028002100261023A0084
:102BA30041006302730272026202430200021302D3
:102BB30038000002000204021202000200020002B6
:102BC300000204020402370037003C024402000200
:102BD3003900000200026502000235028102000290
:102BE3000502820283020002010171010101010158
:102BF3001101010131010101010180011001610194
:102C03003B0014006301730172016201430100017F
:102C1300130106013D013500040112010001000109
:102C23000001000104010401330133013C014401AB
:102C33003201360000010001650100013500810108
:102C430000010501820183010001030071003001CD
:102C53006000110070003102200350048000100056
:102C630061000000140063007300720062004300FF
:102C73000000130006000000000004001200000022
:102C830000000000000004000400370037003C028D
:102C93004400000000000000000065000000350053
:102CA300810000000500000083000000030471049C
:102CB3000204600411047004020402040104020407
:102CC30010046104000414046304730472046204B2
:102CD300430400041304060400040004040412045F
:102CE3000004000400040004510464000004000410
:102CF3000004440400040004000400046504000408
:102D030035048104640005040004830400042100E5
:102D130010002081D41B21001100438100002100F9
:102D230012002083D51B210013002083D61B210012
:102D330014002083D71B2100150043813E0421008A
:102D430016001A81D81B210017001A81DB1B2100F2
:102D530020001883400421002100F183DE1B2100A1
:102D63002200F183EE1B2100FDFF2181FE1B3600B3
:102D73000100060000000F0000000000000000003A
:102D83000000000003FFFF00000403FFFF0000FF3B
:102D9300FF0FF4010005C4040320000100000B0031
:102DA3000000000000000003010F0000000000000D
:102DB3000000000000000000000000000000000010
:102DC3000000000000000000000000000C14361496
:102DD3001214461318143C14181448141E144613E2
:102DE30018143C1424144613000000002A1446133C
:102DF3000000000000000000301446130000000033
:102E030000000000000000000000000000000000BF
:102E130000000000000000000000000000000000AF
:102E2300000000000000000013009C171F00A21701
:102E33001F80A81700000E1801000E180200481783
:102E43000280421703004E170400541704805A17D8
:102E53000500601706006C1731007E1733008417D6
:102E630034008A1736009017FFFF00000A000000A5
:102E73000200000004000000080000001000000031
:102E8300200000004000000080000000000100005E
:102E93000002000000040000000800000010000011
:102EA300002000000040000001AE2006DE2008D80C
:102EB300200BFC2010181D02B42005CC2007BA20DB
:102EC3000C96200DA22064081BFF000007ECFDFDFB
:102ED300FDECDCDCCCBCACAC9C9C8C7C7C6C6C5C7E
:102EE3005C5C4C4C3C3C2C2C1C1C03EAF5E5D5D516
:102EF300C5B5A5959585857575656555554545355F
:102F030035252515150500160F00000B150B0200BE
:102F130002220F3300000E0FD0D1D2D3D4D5D6D78F
:102F2300D8D9DADBDCDDDEDF5A6967426565416CDF
:102F33006C69616E63653039C0C1C2C3C4C5C6C79D
:102F4300C8C9CACBCCCDCECF000000000000000022
:102F53000000000000000000303016181920231A6A
:102F63001C1E3000034D4C4651181A250502000162
:102F730019161816161823030030301718192130A4
:102F83001B1D1F30003C40423A3F3F392F47300C56
:102F93000E020B040B0A0708000F020402010101D1
:102FA30001090200BE040AE8030000E8030000016F
:102FB3000003007F0000000E000404080405030A58
:102FC3000C100E08091E0C28FF03100209033C0C09
:102FD300050815001EE4F0A3F0A3F0A322122FD8D6
:102FE300F022901AB51245E412249822122FF322EC
:102FF300E0F508E4F509F50AF50B22E824FBF58270
:10300300E934FFF58322E82411F582E439F583E0FE
:1030130022F58312301A22E0F508A3E0F509221203
:103023002714740412091B7F0802066B7401F090C5
:1030330004D2E0640F22740912091B7F0402066B99
:10304300EA2413FAE43FFB122642E9227905122609
:103053004E740622A3A3E024F5C39413221227205F
:103063009004F21265A27A147B0022C082C083907E
:103073001A94748CF0A37424F0A3749EF0A37424A4
:10308300F0901A987474F0A37424F0A3746EF0A3F0
:103093007424F0A374AAF0A37424F0A374B0F0A36F
:1030A3007424F0A374A4F0A37424F0A3745CF0A3B9
:1030B3007424F0901AA47480F0A37424F0A374868B
:1030C300F0A37424F0A3747AF0A37424F0A374B669
:1030D300F0A37424F0901AB5124FB36009901AB597
:1030E3001245E0121232901AB21248FA7408125CB6
:1030F3004FA3F0901B5EF0901AB7F07C0BFDF97AAA
:10310300B87B1A12117E7C0B7D0079007AC37B1A7F
:1031130012117E02475474F712040F74F71209B3A5
:10312300EAFEEBFF1231AC7405124A187403F01275
:1031330032C31249FA2430FCE43FFD8C821231A4DD
:103143001231B860081239D174FFF0A3F0EE242EC7
:10315300E43F1C1CFD8C82F583A3E0C0E08A828BD4
:10316300831246ACD0E01231B888828983124EE7CD
:103173002403F0EE1239DB120C017403F09004E720
:1031830012073874021209931235A512091BE9F5C7
:10319300087007EEFAEFFB122528A9087409023913
:1031A300EAF583E08882898322EA1231B122125040
:1031B300F63FF58322125ECF124A06E8F0A3E91226
:1031C30061A6E02274F012040FEAFEEBFF8C0C8D73
:1031D3000D890B1232C3F583124A0E7410120C01BF
:1031E300E0F508A31231A6F0E824FFF582E91235D1
:1031F300B7E508F0E824FEF582E91235B7E50BF0F0
:103203009004ECE0C0E0E824FDF582E91235B7D084
:10321300E0F09004EBE0C0E0E824FCF582E912352D
:10322300B7D0E0F07412120C01123016122FFEE523
:1032330009F0E824FAF8E934FFF98882F583E50810
:10324300F0EE2404FCE43FFD88088A828B83E0F5DA
:103253000E8C828D83E0250EC39508125ECF124833
:1032630034850C82850D83A3A3A3A3A3A3A3A3E007
:1032730064037009EE1249E8F0A3E480031235BC3D
:103283001235C47409F07508B875091A750A0078FF
:10329300081208E912599912091B7508FF7509FFED
:1032A30078081208EDAC0CAD0D1235A512091BE917
:1032B300F5087007EEFAEFFB122528A90802302A59
:1032C300EA2402FAE43FFB8A8222C082C083901A76
:1032D300D4E0C39408400474078001E08A828B839E
:1032E300F033333354F8F902475474F012040F8A5D
:1032F300088B09890A8C0E8D0F750C00A2AFE4337D
:10330300F50BC2AF901ACE80451233EF503D123405
:103313000964037036E50824F9F508E50934FFF577
:10332300098E828F83A3A3E02405FCA3E03400FD70
:10333300AA08AB09121322E50824FFF508E50934AE
:10334300FFF5097410250CF50C150A1237DE126906
:1033530057E50A6004EE4F70B0E50BA2E092AFA20E
:10336300AFE433F50BC2AF901ACE803E124EC08845
:1033730082F583124134850882850983F08A828924
:1033830083123400A3A3E0C0E0E50824FFF582E53F
:10339300091235B7D0E0F0E50824FEF508E5093455
:1033A300FFF509050C150A1237DE123632602112B9
:1033B3003409640270F11233EFEE40B0124B2FA2C6
:1033C300E550E4850E82850F837401F0E50A70D71A
:1033D300E50BA2E092AF850882850983E50CF0E551
:1033E3000824FFFAE50934FFFB02302A1233F5A261
:1033F300E622EE2411F582E43FF583E02212340441
:1034030022124F05A3228E828F83A3A31246B012EA
:1034130055DC2274F012040F74F31209B37403120F
:103423000C01E9F07402120C01EAF08B0B8518828F
:10343300851983E4F00412098B12243EE9F8900401
:10344300D1E0292437F508FA7B0012119C8A0C8BF2
:103453000DAE0CAF0DEA4F700302359CEA2402F562
:103463000EE43FF50FA808EA28F8E43BF9850E823D
:10347300850F83123F309004D1E0F9FAC3E49AFA3E
:1034830095E0FB850E82850F83E02AF50CA3E03BD4
:10349300F50D9004CF123016750A0078081208E96A
:1034A300E9FC7D00AA0CAB0D12496A12091BAC188A
:1034B300AD197401120C01E0F9E50C24FFFAE50DD6
:1034C30034FFFB1224448A828B83E4F0E50BC4545B
:1034D300F0F9901B5FE0C4333354C0F89004CBE0A1
:1034E300A2E0E43313134849440FC0E0EA24FFF594
:1034F30082EB1235B7D0E0F0EA24FEF50CEB34FF93
:10350300F50D7403120C01E0F87402120C01E0C40F
:1035130054F048850C82850D83F0A80C850E8285B6
:103523000F83125C1C2AC3988E828F83A3A3A3A349
:10353300F0850E82850F83E8F0A3E50DF01235BC0C
:103543001235C4E4F0740C120C01E4F07508C37571
:10355300091A78081208E912599912091B85188269
:10356300851983E06009EE240E124B314408F012F2
:103573002630E9F9E4F508F50978081208ED740630
:103583001209931235A712091BE97006EEFAEFFB35
:10359300800BEEFAEFFB1211A27A007B00740D028E
:1035A30030277903EEFAEFFB122648740222EE2449
:1035B300FFF582EF34FFF58322EE1231B1E4F0A37D
:1035C30022F01235C922EE1258BC3FF5832274F261
:1035D30012040F8A0C8B0DA2AFE433F50AC2AF7548
:1035E3000800750900901ACE802C1237EE502485FE
:1035F3000C82850D83A3A31259AC8E828F83A3A360
:103603001245E0122636E9600A1237E9C2E6F08E67
:10361300088F091237DE12363270CFE5084509608C
:10362300061236CBD2E6F0E50AA2E092AF800DE0B7
:10363300FEA3E0FFEE4F22740212091B7F0602066F
:103643006B74F012040F8A0E8B0F8C0C8D0D750AA0
:1036530000A2AFE433F50BC2AF7E007F00901ACE19
:103663008010AE08AF091236C3124B2FD2E7F01207
:1036730045BE1245D260341236CBA2E750F185081D
:1036830082850983A3A3120738AC0CAD0DAA0EAB38
:103693000F12263C740212091BE960D3EE4F60C27D
:1036A300123A6570061236DDD2E4F0E50BA2E09221
:1036B300AFEE4F6006122522750A01A90A02302ACD
:1036C3001233F5D2E4F0EE22E5081258D63509F5A7
:1036D30083E022AA82AB831213228E828F83A3A359
:1036E3001246B0E02274F212040F74FE1209B3758D
:1036F3000C00750D00851882851983E4F0A3F0A2F0
:10370300AF33F50AC2AF901ACE126957802BEE245D
:10371300FBF582EF34FF123014780C1208ED1237E8
:10372300CC12091BEEFCEFFDAA18AB191211C0AEA7
:1037330008AF09901AD4E014F0EE4F602B1237EE65
:10374300501DEE240BF8E43FF98882F583E024FF53
:10375300F0A3E034FFF088828983124FB360AF8E09
:103763000C8F0D1237DE80A1E50AA2E092AF901A0A
:10377300D4E0602C9004D2E0640F6006901B5EE0FE
:10378300701E7AAC7B1A1227209083C11207347AF9
:10379300AC7B1A1247DC12091B800574F01246BD7C
:1037A300AA18AB191211C68A088B09AE08AF09EA29
:1037B3004F60131224501237E9A2E28E828F83A343
:1037C30050D974E980D702363AEEFCEFFD7ACE7B0E
:1037D3001A1211D27402228E0A8F0BEE24FBF58289
:1037E300EF34FFF58322EE1233F6221233F5A2E70C
:1037F3002274F712040FEAFEEBFF1224501246A9BB
:103803001228B1E964019004EE700AE02401F8A3E0
:10381300E03400800312462FF9124D3112483490E0
:103823001AD4E0701F9004D2E0640F70177AAC7B57
:103833001A1227209083C11207347AAC7B1A1247DD
:10384300DC12091BA8A8C2AF901AD4E004F0E8A2C6
:10385300E78004E508A2E092AF024C3F74F712043C
:103863000FEAFEEBFFEA123895F0122450EEFCEF5C
:10387300FD7ACE7B1A1211CCA8A8C2AF901AD4122B
:1038830041839004D2E0640F700579081225E802A1
:103893004C3F1233F6C2E42274F712040F74EA1297
:1038A30009B3EAFEEBFF9004CBE0602A851882851A
:1038B30019837401F0120C01E4123950120C011235
:1038C30036D6C0E0740A120C01D0E0125C3C740BD3
:1038D300120C01124E9C74160239EA74F712040F8B
:1038E300EAFEEBFF122432E9F974DC69601E74DD31
:1038F30069601974E469601474F369600F74DE69B4
:10390300600A74DF69600574DB697007EEFAEFFB28
:103913001225EE024C3F74F712040F74EB1209B335
:10392300EAFEEBFF8518828519837406123950125B
:103933000C01AA82AB83121322EE2408FCE43FFDA0
:10394300740A120C01124E9C74150239EAF0EA242F
:1039530013FCE43FFD74022274F712040F74F71290
:1039630009B3EAFEEBFFEA2430124B31605DEA1241
:1039730039DB120C017403F09004E7120738123993
:10398300D11207389004FAE0F97404120993EEFA9D
:10399300EFFB122438740412091BE9F974DC696023
:1039A3002374DD69601E74E469601974F36960143B
:1039B30074DE69600F74DF69600A74E86960057416
:1039C300DB697007EEFAEFFB1225EE02319FEE245E
:1039D3002EF582E43FF58322125DADAA18AB1912CE
:1039E3001322740822740312091B024C3F74F2124F
:1039F300040F8A0C8B0D750A00750B007508E7A27E
:103A0300AFE433F509C2AF901ACE80031237DA124E
:103A1300363260251237EE50F3123A6570EEEE241B
:103A230032123BFCE06870E4780A1208ED1237CCDE
:103A330012091B901AD4E014F0E509A2E092AFEE4C
:103A43004F6013EEFAEFFB12245079F0EEFAEFFB1E
:103A53001225EE750800A908AA0CAB0D1225EE027B
:103A6300363F1235C9E064012274F412040F74F76F
:103A73001209B3EAFEEBFF8A82F583A3E064F370D5
:103A830003023B0A8A828B83A3E064DF60798A8224
:103A93008B83A3E064E8606F8A828B83A3E064DB9B
:103AA3006065122492E9F5087055EE240E124B312D
:103AB300604D123B1460487408120C01123B231230
:103AC30007387508FF7509FF78081208ED8E828F95
:103AD30083A3A3A3A3A3A3A3A3E0F9740412099349
:103AE300122438740412091BE9F50874F369600F92
:103AF30074DF69600A74E869600574DB69700F8EAE
:103B0300828F83A3E508F0EEFAEFFB12249E0230C6
:103B130039EE240FFAE43FFB79091224D4EA4B224D
:103B230074021253A274FFF0A3123B3022124EF020
:103B3300A3A32274F112040FEAFEEBFF7508008AB7
:103B430082F583A3A3A3A3A3A3123057400375084D
:103B5300E88A828B83A3A3A3A3A3A3A3A3A3A3E022
:103B6300C3941040057508E880138A828B83A3A34E
:103B7300A3A3A3A3A3A3A3A3E0640F600B901B3B86
:103B8300E0540870037508E8EA240B123BFCA3A376
:103B9300A3A3A3A3A3A3E0C398500DEA240B124B42
:103BA30031640F60037508E89004EBE0F47003A33D
:103BB300E0F470037508EC7A237B0012122C8B0B54
:103BC300A90B901AB5123C0B60278E828F83A3A397
:103BD300A982AA83890C8A0D750E00780C1208E954
:103BE3007C237D00901AB5E0FA12496A12091B8002
:103BF3000375081AA908025994F582E43FF583E096
:103C0300F88A828B83A3A322EAF0A3EBF0EA49228A
:103C130074F512040FEAFEEBFF8A82F583A3A3A3D4
:103C2300A3A3A3A3A3E09004D2123CA3E09004EDCA
:103C3300F0EA240B124B319004CD123CA3A3E09085
:103C43001B5FF0F9120FB6901B5FE0600BEE2404CC
:103C5300124B232406123C99901B5E12302F6004F2
:103C6300740180027400901AB71262E71208E97CAB
:103C73000B7D007AB87B1A12496A12091BEE2418CD
:103C8300F508E43FF50978081208E97C0B7D007A12
:103C9300C37B1A024957FAE43FFB79E1120F9E22D4
:103CA3001262D1A3A3A3A32274F712040FEAFEEBBB
:103CB300FF8A82F583A3E07003122FE5125E580298
:103CC3004C3F74F712040FEAFEEBFF901AB5124F44
:103CD300B36010901AB51245E0901AB5E4F0A3F062
:103CE3001212328E828F8374081246C41219EE02A6
:103CF3004C3F74F612040F901B5EE06010901AB7ED
:103D0300E0700A123D13EA4B6003122528025F524A
:103D13009004CDE0FB9004EDE0FA9004D2E0F912B8
:103D2300244A2274F412040F74E71209B3EAFEEB77
:103D3300FF750B018A82F583A3A3A3A3A3A3A3E027
:103D4300A2E25069EA242BF582E43F1259AAEA243D
:103D530013FAE43FFB122456E97052908309E0649E
:103D6300017005750B008045123DE51208E97C0BD7
:103D73007D00741112098B12496A12091B12263035
:103D8300E9FA740E1209838808890978081208ED84
:103D930075083075090078081208EDEE125C0512FB
:103DA3000738125D9F790112305112091B85188261
:103DB3008519837410F0125D9F7402120C01AA829C
:103DC300AB83121316EE242B126598740B120C019D
:103DD300124834740D120C01E50B126011741902B0
:103DE300303BEE24081262EF22C082C083901B5F37
:103DF300E060031226A2024754C082C083901B5680
:103E03007494F0A3741AF0A37498F0A3741AF0A333
:103E130074A4F0A3741AF0901CBE74AFF0A3742CB6
:103E2300F0901B40742CF0A37424F0901AD97462A0
:103E3300F0A37424F0901ADB7468F0A37424F09058
:103E43001B3BE04402024258C082C083EAFCEBFD04
:103E53007903024F5FC082C08379080260D2C082B7
:103E6300C08374FE1209B3901AE17410F0A3742591
:103E7300F0901AE3740AF0A37425F080077ACE7BDE
:103E83001A123EBD901ACE124FB370F1901AD0128F
:103E93004FB360097AD07B1A123EBD80EF901ACEE1
:103EA300E4F0A3F0901AD4F0A3F0A3F0901AEF7407
:103EB3004CF0A37425F07402801C1211C68518827D
:103EC300851983EAF0A3EB123ED112261E22F0AA33
:103ED30018AB1922741112091B02475474F6120409
:103EE3000FE9FF748729F582E4342FF583E493FE09
:103EF300FA7B0012119CEA4B6007EA2E123F2D80D9
:103F0300267A027B0012119CEA4B6017747C2FF512
:103F130082E4342FF583E4938A828B83F0A3741AAB
:103F23001242F67A007B00025F52124823E8125EC7
:103F3300CCA3A3A3A3E4F022E9FC740629F8EAA224
:103F4300E0501EE875F00A84E5F0F96014740A285D
:103F5300C399F8E9C394054004740A28F8740B283C
:103F6300F8ECC394134004791480027906E82979A4
:103F7300002409F85001097A0A7B001202BFE8F90C
:103F83000208AFC082C083901B3BE05402600A1258
:103F930019F4E96004790180027900024754C08270
:103FA300C083901B3BE054026014901AD4E0700A63
:103FB300124FB06009123FC65004790180027900A4
:103FC300024754123009A2E722C082C083908306BD
:103FD300E0F8901AD6E0C398500512119C80047A39
:103FE300007B00024754C082C08312261E79000260
:103FF3004754C082C08374FE1209B38518828519A1
:1040030083EAF0A3EB12415FA3A3A3A3A3E0600A97
:1040130014605724FE605A0240CF9004D2E0640F2C
:1040230060121225F4E9700C1245DA901ADD12467B
:10403300AC1228B19004FAE0C0E085188285198398
:10404300124ED3D0E012415F74141258F0FCA3E077
:10405300FD7AD07B1A1211C0A8A8C2AF901AD6124B
:10406300418379201225E8023EB912442D7415804C
:10407300D912442DA3A3A3A3E0605112442D1236F9
:10408300E1C0E0851882851983E02406F582E43BCC
:10409300F583D0E01258F02402F8A3E03400F98845
:1040A30082F583E02401FAA3E03400FB888289834C
:1040B300EAF0A3EB1258F012446D85188285198338
:1040C300601312413460051241464048AA18AB19E7
:1040D30012261E809212413460F212414650211280
:1040E3004153FA851882851983A3E0C82406124434
:1040F30029F8749C1250E8342FF583E4936A601412
:10410300851882851983124134640870BF124153A4
:10411300640870B812415314124167240AC0E08541
:1041230018828519831246ACD0E01241670402401D
:104133004D1241382212462FC82406F582E438F581
:1041430083E022851882851983124138C3940A2299
:10415300851882851983123404A3E022124171F574
:1041630083888222124171C8240612445722F085A3
:10417300188285198312462F22A8A8C2AF901AD598
:10418300E004F0E8A2E792AF22C082C083901AE570
:10419300124FB360081244341228B180027900022E
:1041A300475474F712040FEAFEEBFFEA1235CA74A0
:1041B300011247E2F8A3E0F91231AC124834EA24C1
:1041C30035124B31C0E0EA2413F582E43FF583D086
:1041D300E0F0EA2436124B31C0E0EA2414F582E41D
:1041E3003FF583D0E0F0EA2438124B31C0E0EA24F3
:1041F30018F582E43FF583D0E0F0EA242FF582E45A
:104203003FF583120738125DACEA2431124B31F9C2
:104213001235AB12091BE9F5087007EEFAEFFB1232
:104223002528A908024C3FC082C0831225F4E96007
:1042330004792080027901024754C082C083EA24B2
:104243001112424ED2E0800DEA240DF582E43BF5D3
:1042530083E022F0A3F0024754C082C08312424B92
:10426300640170111242F0400C8A828B83A3E0F93F
:104273001225EE80661242E1A2E650128A828B83F7
:10428300A3E0F9901ADF1246AC1228B1804D124216
:104293004B6401700D1242F050088A828B83743094
:1042A30080368A828B83A3E0641B8A828B837004AB
:1042B30074228024A3E0700D12424BF8745B1250F9
:1042C300E8342F800B12424BF8747C1250E8342FE1
:1042D300F583E4938A828B831242F6024754124297
:1042E300E522EA2410F582E43BF583E0221242E55D
:1042F300A2E322F0901B36E0F91211A82274F71200
:10430300040FE9FE124FB07003024426EE601474EA
:104313001B6E701AE81258BC39F583E0640570030C
:104323000243FE901AD8124434A3E402440574E90C
:104333006E7068E82412F582E439F583E0700B129D
:1043430019FAE96005124477606179EE120F209043
:104353001AD712444E901AD7603A12447A901AD759
:10436300700B12444E14F01210D602442612446C01
:10437300C2E7124615240D1244296403700912443E
:10438300471245CBD2E2F079ED120F2012445F12AF
:1043930028B1807812443A74E9806774E16E703E04
:1043A3001219FAE9605512447770509004F4E0C092
:1043B300E01244472412F582E438F583D0E0F0900C
:1043C30004E3E0C0E0901AD7124443124443D0E020
:1043D300F09004E3E004F079011210BE8045741CF0
:1043E3006E7018901AD71245E0901AE71246AC1275
:1043F30028B1901AD7E4F0A3F08028901AD712447A
:104403003AEEF0901AD71245E01225161245F6E05F
:10441300548060031260C1901AD7E4F0A3F07910BE
:104423001225E8024C3F12445722851882851983CE
:10443300A3E0F58388822212443E221246B4A322CB
:10444300124F0122901AD7124EE222124EE2241288
:1044530012445722F582E438F583E022901AD712EA
:1044630045E4901ADB1246B022E0F8A3E0C824101A
:1044730012445722901AD71245FDE054042274F4D3
:1044830012040F750A00750B00A2AFE433FEC2AF2E
:10449300124FB060030245741246A91228B1E944D1
:1044A30010F8901ACE800985080A85090B1245BEBB
:1044B3001245D270030245741236CB586870E878FF
:1044C3000A1208EDAC08AD091237D012091B901A75
:1044D300D7E508F0A3E5091246151245CBA2E7502C
:1044E3000302457B901AD5E014F0EEA2E092AF9060
:1044F3001AD7E0240EF8A3E03400F9E8FEE9FF88B8
:1045030082F5831245E0901AD7124159F91224DA41
:10451300E9901AD2125C4F8E828F83E05480601828
:104523001244472413124429F9120FDA1244472480
:1045330014124429F9120FCE1245F6A3E054016078
:104543005F901AD2124FB3604512460C6040124678
:104553000CF87900901AD21245E01202C7E8C0E0C5
:104563001245EAD0E012461AC39413401174028034
:104573000FEEA2E092AF8037901AD40244EA74009F
:10458300C0E0901AD8E0C81245B5D0E0800D1245BE
:10459300EA74011246151245B57401F07903800CD3
:1045A300901AD712446CA2E1B3E433F91210BE029D
:1045B300303E241AF582E438F58322E50824FBF51E
:1045C30082E50934FFF583221258D612445A221287
:1045D300301AE5084509228518828519831245E4B6
:1045E30022E0FAA3E0FB22124EDF2419F582E4381D
:1045F300F58322901AD71245FD2212462FC8124680
:1046030005221250F638F58322124EDF2418124485
:104613005722124627C822124627F5838882A3A36E
:10462300A3A3E022F0901AD712462F22E0F8A3E0CA
:104633002274F712040FEAFEEBFF122618124B2E18
:10464300A2E3400A123A65700590830480039083C5
:1046530005E0F9EEFCEFFD7ACE7B1A1211D8E96082
:1046630038EEFAEFFB901AE11246AC1228B1EE24B1
:104673000E124B315404701212417CEE1231ADA371
:10468300E05401701E1225228019EEFAEFFB901AF6
:10469300D91246AC1228B1800A8E828F83A374F19B
:1046A3001246BD024C3F901AE31246B0221246B4A2
:1046B30022E0F8A3E0F5838882221246C41225166D
:1046C30022F0EEFAEFFB2202474D74F712040FEAD1
:1046D300FEEBFF7900901B3BE05402700CEA24339D
:1046E300124B315404600279E8901B3BE054607034
:1046F3000CEA2433124B315402600279E88A828B2C
:1047030083A3A3A3A3E0F890830AE0C3985002799C
:10471300E8EA2431124B31700CEA242E124B31702B
:104723000479F5800BE97005122504E9F9E96007BE
:10473300EEFAEFFB1225EE024C3FC082C0838A8261
:104743008B83740DF01219EE8007C082C08312258B
:1047530022D083D0820208AF74F412040FEAFEEB76
:10476300FF8A82F583E4F0A31247E25404908304A2
:104773007012E0F8901AD5E0C398401279F112252F
:10478300EE02303EE0F8901AD4E0C39850EE1247A0
:10479300E8A3E054016037EA2437124B31C3940590
:1047A3004033EA2433124B31540570297AE97B1ADA
:1047B300122720EE2437F582E43FF583122FEF789A
:1047C300081208E57AE97B1A1247DC12091BEEFA94
:1047D3001251D980AC79E880A5122714740422F011
:1047E3001247E8E022EA2433F582E43FF58322749A
:1047F300F612040FE9FE2451FAE43400FB12119C73
:10480300EA4B6015EE8A828B83A3A3A3A3F0EA2469
:104813005112482312483480047A007B00025F520D
:10482300F8E43BF98A828B83A3A3221265A2901B2F
:10483300B3E8F0A3E9F02202474DC082C083901A87
:10484300F27476F0A37425F0A374A6F0A37425F094
:10485300A3747CF0A37425F0A37482F0A37425F0F1
:10486300A374A0F0A37425F0A37494F0A37425F0AB
:10487300A3748EF0A37425F0A374ACF0A37425F095
:10488300A374B2F0A37425F0A374B8F0A37425F055
:10489300A374C4F0A37425F0A37488F0A37425F063
:1048A300A37470F0A37425F0A3746AF0A37425F0C5
:1048B300901B0E749AF0A37425F0A374BEF0A37436
:1048C30025F0A374D8F0A37426F0A374CAF0A374DC
:1048D30025F0A374D0F0A37425F0901B32E4F0907C
:1048E3001B35F0901B1E1248FA7402F0901B27121E
:1048F30048FA740102425874E8F0A37425F0A32225
:1049030074F512040F74F11209B3851882851983A3
:104913007402F07401120C01E9F060047AFF7BFF6A
:104923007402120C0112539775082A75091B750A34
:104933000078081208E97C0B7D007407120C01AAA9
:1049430082AB8312496A12091BAA18AB191219EE1A
:10495300740F800312496A12091B7F0302066B7CE2
:104963000B7D007A2A7B1B12116C74032274F712DD
:10497300040F74FD1209B3851882851983740AF034
:104983007401120C01E9F07402120C01EA126011B5
:104993000239E874F612040F74F71209B3EAFEEB56
:1049A300FFEA1249E8124A187402F0EA2428FCE4E8
:1049B3003FFDAA18AB19121316EE24311249EE2447
:1049C30033125A101208ED740212099379831A1ADA
:1049D3001235A912091BE9F5087007EEFAEFFB126D
:1049E3002528025F4B1231B1740122F582E43FF5B1
:1049F3008312301A124EB8F583124A06E8F0A3E97F
:104A0300F0EE22124A0E8A828B8322E024FFF8A35F
:104A1300E034FFF922F0A3E4F0EA1235CA2274F07D
:104A230012040F126480120BAA7808790C12032067
:104A330078081208E57A217B1B02302274F41204F1
:104A43000F74C61209B39004D2E0640F600D851889
:104A530082851983742E1253B680227A187B1B1217
:104A630030601202C788088909E4F50AF50B780853
:104A73001208E57A187B1B1247DC12091B743A02F1
:104A8300303B74F512040FEAFEEBFF8A82F583A331
:104A9300E0F87078EA2430124B3164026007E06476
:104AA30003600278E8EA2426F582E43FF5831230B6
:104AB30059400478E88058E87052EA2426123C9959
:104AC300EE2431124B232430124B316402700EEE6C
:104AD30024281265989004E112483480179004E169
:104AE30074FEF0A304F0EE2428FCE43FFD7AD87BA7
:104AF30004121322EE241B123DE81208E912496244
:104B030012091BEEFAEFFB122564E9F8E8600EE8E0
:104B13008E828F83A3125DB47417125E5E02495DA9
:104B2300FAE43FFB7950120F9EEE22EE2410F58239
:104B3300E43FF583E02274F612040F74F71209B30D
:104B4300901B35E070377401F0F9121088AA18AB86
:104B53001912262A75082A75091B78081208ED759B
:104B6300080175090078081208ED9004E712073868
:104B730074061209937A0312304F12091B025F4D18
:104B830074F712040F124D5F7004A374EBF0901BC3
:104B930035E0A2E25003C2E2F0E0A2E15005124D7B
:104BA3007080098E828F83742A125E5E024C3F747A
:104BB300F412040F74FE1209B3124C65124EABECDF
:104BC300851882851983124EFAE0F50B7015AA1821
:104BD300AB197953120F9EEE2413FAE43FFB794A83
:104BE300120F9E123DE51208E912496212091B12C7
:104BF30045DAA90B122558901B35E0A2E1500312A8
:104C03004D77901B35E4F0740202303B74F71204C5
:104C13000FEAFEEBFF8A82F583A374EBF0901B355A
:104C2300E0A2E150077A0079EB12255EEEFAEFFB82
:104C33001225948007EEFAEFFB1226967F010206F7
:104C43006B74F712040F124C65901B32E4F0901B47
:104C530035F07AFF7BFF8E828F83A3E0F91225580C
:104C630080DA124DB07A217B1B1227202274F712AF
:104C7300040FEAFEEBFF12258E80BA74F712040FBD
:104C8300124DEDA3A3A3E060047400800274EB1241
:104C93004CBE5003C2E2F0E0A2E15005124DC180C8
:104CA30011A2E0500D8E828F83742AF0A374EB124D
:104CB3005E5EEEFAEFFB12253A80818E828F83A32C
:104CC300F0901B35E0A2E22274F612040FEAFEEB29
:104CD300FF901B35E0D2E1F079011210888E828FAC
:104CE30083A3E07038122630E9FAEE240DF508E4C8
:104CF3003FF50978081208ED750801750900780871
:104D03001208ED124D31120738EE2402FCE43FFD88
:104D130012304F12091BE98E828F83A3F08E828F8C
:104D230083A3E060067A00F912255E025F52EE2447
:104D33000BF582E43FF5832274F712040F124D5FE3
:104D43007004A374EBF0901B35E0A2E25003C2E2BF
:104D5300F0E0A2E15003124D70024C3FEAFEEBFF7C
:104D6300790112108E8E828F83E0642022C2E1F0DB
:104D7300124D77227A008E828F83A3E0F912255E8B
:104D83002274F712040F124DB08E828F83A3A3A354
:104D9300A3E060047400800274EB124CBE5003C2A3
:104DA300E2F0E0A2E15003124DC1024CB5EAFEEB82
:104DB300FF790112108E7A187B1B12272022C2E181
:104DC3001262E2E0A2E4E433FA124D792274F7129C
:104DD300040F124DED74EB124CC35003C2E2F0E02A
:104DE300A2E15003124D70024C3FEAFEEBFF790142
:104DF30012108E8E828F83A32274F712040F124E29
:104E030012024C3874F712040F124E12024C3FEA8E
:104E1300FEEBFF7A187B1B122720EEFAEFFB12251D
:104E2300B82274F712040F74EF1209B3EAFEEBFF12
:104E3300EA125DA07AD87B04121310E96056851834
:104E4300828519837409F07401120C0174EFF01256
:104E53004EAB7402120C01EC124EFAA3A3E0C0E0B5
:104E63007404120C01D0E0124EE7640870158E82B0
:104E73008F83A3A3124ED3E0C0E07405120C01D0BC
:104E8300E080067405120C01E4125C3C7406120CFB
:104E930001124E9C74110239EAAA82AB8312266076
:104EA300AA18AB191219EE22124EB8F583124ECA84
:104EB300FCA3E0F922EE124EC0FB8882222402F802
:104EC300E43FF9E8FAE92212462F8882F583E022CB
:104ED300124EE22407F582E438F58322901AD712A2
:104EE300462FC822124EEB22124EF0E022F08E82A1
:104EF3008F83A3A3A3A322125ECC124F0122124FCE
:104F03000522E0F8A3E0F5838882A3A322C082C030
:104F1300831226A2024754C082C083901B5274F2AC
:104F2300F0A3741AF0A3740EF0A3741BF0901CB8D2
:104F330074EBF0A3742BF0A37489F0A3742BF0909B
:104F43001B3E7452F0A37425F0901B3BE044010216
:104F53004258C082C083EAFCEBFD790212260602A6
:104F6300475474F612040F74FE1209B3901B3712E0
:104F73004FB360077A377B1B12261E901B3DE4F06C
:104F83009017BF124FB360208007AA18AB191226DF
:104F93001E901B36E0F91211B48B09A909851882FA
:104FA300851983123C0B70E27402025F4F901AD78B
:104FB3001265A2E8492274F712040FE9FA7B009004
:104FC3001B36E0F91211DE024C3F74F712040F7422
:104FD300F01209B3EAFCEBFDE9FE8A828B83E0F869
:104FE30074921250E8342FF583E493C0E0740112F5
:104FF3000C01D0E0F0640B700DE98A828B83A3F07F
:105003001226840250E3E070030250E3640C600351
:105013000250D4741A6E700B7404120C01E4F0A3E2
:105023000250D37404120C01125397EA243212581B
:10503300A0C0E07403120C01D0E01262CD120BD2B7
:105043007406120C01120BC68C828D83A3A3A3A337
:10505300A3A3A3A3A312659E740A120C01E8F0A3F1
:10506300E91250EDE054106009851882851983E434
:105073008013EC24121258A0F89004F4E0C398852E
:105083001882851983F0E0C0E0740C120C01D0E0A3
:10509300F0EC24151258A0C0E0740D120C01D0E0FE
:1050A300F0EC24161258A0C0E0740E120C01D0E0EC
:1050B300F0EC24171258A0C0E0740F120C01D0E0DA
:1050C3001250EDA3E0540160087401120C01741135
:1050D300F07402120C01EEF0740112098B1219EE36
:1050E30074100239EA28F582E422F0EC1250F63DFE
:1050F300F58322240EF582E422C082C083901B3DF7
:10510300E06403700479018002790002475474F764
:1051130012040F901B3DE012518C74B628F5827473
:105123001C39F58312561EC2E7F0125193A3E49380
:10513300FE25E0FCE433FD74B62CF582741C3D12AD
:1051430059AAEC4D6005EE901B3DF08A828B83E0FB
:1051530025E0FCE433FDE82CF582E93DF583E49397
:10516300FCC4540F25E0F8744C1250E8341BF5834B
:10517300124FB37005122672800CEC540F12519328
:105183001246AC1228B1024C3F25E0F8E433F92271
:1051930025E0FCE82CF582E439F5832274F212044D
:1051A3000F74FE1209B3890B8A088B0912523E123F
:1051B300522F601A125C49F50A78081208E9125254
:1051C3004B24021259A012091B1251D78003125209
:1051D3005D02363AAA0CEFFB901B36E0F91211A8D8
:1051E3002274F012040F74FE1209B3890B8A0E8B1A
:1051F3000F12523EF50812522F6027125C49A8087D
:10520300EA28123F2D850E08850F09F50A78081242
:1052130008E912524B12599E12091B1251D77900F9
:10522300800512525D791A7402023027FA7B00124C
:10523300119C8A0C8B0DAF0DEA4F22746629F582FF
:10524300E4342FF583E49322A80B74711250E834ED
:105253002FF583E493FC7D00EA2285188285198368
:10526300E50BF0791AAA18AB191225EE22C082C0F9
:1052730083E9901B3602425874F612040F74FE122F
:1052830009B3EAFEEBFFEA542070308039A8A8C2C4
:10529300AF901AD6E0141241858A828B831253840D
:1052A300901B391253971225FA851882851983E0CA
:1052B300641560077A397B1B12261E7AD07B1A127B
:1052C30011C6EA4B70C7EF5480700C8016901B39DF
:1052D300EAF0A3EB1253AA901B36E0F91211B4EAD9
:1052E3004B70EAEE5410600B851882851983742D78
:1052F3001253B6EEA2E0500B8518828519837424ED
:105303001253B6EE5402600B8518828519837425F7
:105313001253B6EE5404600B8518828519837426E4
:105323001253B6EE5408600B8518828519837428CE
:105333001253B6EE5440600D7401120C0112539DCA
:10534300742C1253B6EE5480600D7401120C0112CA
:10535300539D742F1253B6901B37124FB3601BA883
:10536300A8C2AF901B371245E0901B37E4F0A3129D
:105373004185A3EAF0A3E91253AA7A007B00024F06
:10538300AB12538822E0851882851983F022A3A3E8
:10539300A3A3A3A3EAF0A3EBF022E41253A222F007
:1053A30085188285198322F01225FA7A397B1B121C
:1053B300261E22123ED11225FA22C082C083901BE0
:1053C3003912600C687002EB697007901B39E4F0C6
:1053D300A3F002475474F712040FEAFEEBFFEA4FFF
:1053E3007003120D7CA2AFE433F508C2AF8E828F37
:1053F30083124FB36028E824FBFAE934FFFB901BC8
:10540300391259ACE86C7002E96D7007901B39E4EE
:10541300F0A3F08E828F83E4F0A3F01212320238ED
:1054230056C082C083901B607466F0A37426F0A3F9
:105433007478F0A37426F0A3747EF0A37426F0A30B
:105443007434F0A37425F0A37484F0A37426F0A33A
:10545300742EF0A37425F0A3743AF0A37425F0908E
:105463001B6E74B4F0A37426F0A3748AF0A374269D
:10547300F0A37490F0A37426F0A3749CF0A3742695
:10548300F0A37496F0A37426F0901B5FE4024258D5
:10549300C082C0839004E1E064FE7003A3E0F47073
:1054A300097CD87D04121316801C8A828B83A3A3E4
:1054B300A3A3A3A3A3A37402F09004E112659E8A9D
:1054C300828B83124834024754C082C0839004EB1A
:1054D300C3E094FEA3E094FF4004790380027902C1
:1054E300024754C082C0831256278C828D83125583
:1054F300DC687039740268701C8A828B831255359C
:10550300E06870298A828B83A3125535A3E0687003
:105513001C7901801A7403687013EC2405FC500194
:105523000DEA2405FA50010B12131C8002790002C4
:105533004754A3A3A3A3A3E0F88C828D83A3A3A3BF
:10554300A3A32274F612040F7E00740A120C01E066
:105553001255D0FF8A828B83A3A3A3A3A3A3A3A3E0
:10556300E06F706474026F704E8A828B83C082C056
:105573008388828983A3A3A3A3A3E0F508888289F0
:1055830083A3A3A3A3A3A3E0FBAA08D083D082E0B1
:105593006A7003A3E06B703088828983A3A3A3E0BE
:1055A300FA88828983A3A3A3A3E0F9EA6C7002E9D2
:1055B3006D70157E01801174036F700CE82405FC77
:1055C300E439FD12131CE9FEEEF9025F52F8A3E081
:1055D300F98882F5831255DC22A3E01313543F5458
:1055E3000322C082C0838A828B83A3A3A3A3A3A322
:1055F300A3A3E0640270169004E112561E687003C0
:10560300A3E06970047901800F7900800BEAFCEB59
:10561300FD7AD87B041213100247541265A28A82C2
:105623008B83E0228A828B831255DCF82274F0127A
:10563300040F74FC1209B3E9851882851983F07489
:1056430002120C01ECF0A3EDF08A0A8B0B75080033
:105653007402120C01E024081258A0C0E074011275
:105663000C01D0E01258F0A2E75008750EFF750F39
:10567300FF800A9004E7E0F50EA3E0F50F8518829A
:10568300851983E0C2E71258F5542060071258C207
:10569300740880041258C2E41258F55404600712C7
:1056A30058CD748080051258CD74101258F55410DB
:1056B30060061258A8E4800B9004F4E0C0E012588E
:1056C300A8D0E01258F5A2E05003750820540860F2
:1056D3000674104508F5088A828B83A3A3E024FF90
:1056E300FEA3E034FFFFEA1258B3C39402E0400F75
:1056F300640B6009E0148E828F831258E6740345AD
:1057030008F508750900900507E0640170118A82A5
:105713008B83A3A3A3A3E0C39467400375091085F8
:105723001882851983E0F50C750D00740E780C1240
:105733000ADFE50D4509F509E06402701B9004ECEE
:10574300E08E828F83F09004EBE0C0E01235B1D09D
:10575300E0F0EE24FEFE801CE06403701DEE24F9ED
:10576300FEEF34FFFF7CFB7D04EEFAEFFB12132206
:10577300EE24FF1EEF34FFFF8003E0602F7401125D
:105783000C01E060187414120C01E0650E7004A3A0
:10579300E0650F700874404508F508800F8E828F0E
:1057A30083E50FF01235B1E50E1258DC7401120CCB
:1057B30001E0F50C750D00740A780C120ADFE50D93
:1057C3004509F509E0640270237402120C011260AA
:1057D300078E828F83F07402120C011236E3C0E04D
:1057E3001235B1D0E0F0EE24FEFE8020E0640370B9
:1057F30021EE24F9FEEF34FFFF7402120C0112595B
:10580300ACEEFAEFFB121322EE24FF1EEF34FFFF80
:105813008003E0601C7414120C01A3E08E828F835A
:10582300F07414120C01E0C0E01235B1D0E012584C
:10583300DCEEF8EFF9E824FF1EE934FFFFE50A1276
:1058430058B370059004D780039004E3E0FA04F0A2
:10585300EA88828983125DB4E5091258E68E82F5DF
:1058630083E508F0E50A2404F8E4350BF9E50A2496
:1058730002FAE4350BFBEEFC8A828B83E0F50888A1
:10588300828983E02508C39C125ECFEEF0A3EFF07C
:10589300850A82850B83A3E4F0F9023025F582E4BF
:1058A3003DF583E022EA2412F582E4350BF58322E9
:1058B3001258BC350BF583E022240DF582E422EA6D
:1058C3002410F582E4350BF58322EA1258D6350B02
:1058D300F583222411F582E422F0EE24FEFEEF3458
:1058E300FFFF22F0EE24FF1EEF34FFFF221253A22C
:1058F300E022F0EA1250F6350BF583E02274F11240
:10590300040F74FE1209B3851882851983ECF0A382
:10591300EDF0890B8A0E750A1A7415120C011268C0
:10592300311224D48A0C8B0DAE0CAF0DEA4F605AA2
:105933007413120C0112600C125A0BF0A3E9124AF1
:105943001BE50BF0750A0078081208E97C0B7D0053
:10595300EA12599E12091B7411120C0112073874B2
:1059630002120C011259ACA90E1235A712091BE938
:10597300F50A7016E50B24F960031470061237E973
:10598300D2E5F0EEFAEFFB122528A90A74021209F8
:105993001B7F0702066B7C0B7D00EE241BFAE43FA2
:1059A300FB12116C740322F583E0FCA3E0FD227467
:1059B300F612040F74F71209B3EAFEEBFF7801EA5B
:1059C3002432124B3160027805EA125A0B124A183C
:1059D3007404125DA7AA18AB19121316EE242F1222
:1059E30049EE2431125A101208ED74021209937908
:1059F300031A1A1235A912091BE9F5087007EEFA02
:105A0300EFFB122528025F4B1231B1E822F582E445
:105A13003F1231A4124EEB04F078082274F2120400
:105A23000F8A088B09ECFEEDFF8A828B837405F0E5
:105A3300EC125E40126194F0EA2403F50AE435099E
:105A4300F50B850A82F583E0F50CA3E0F50DEC2454
:105A530025F582E43FF583120BD2E50C1258D635B7
:105A63000DF583120BC6EC125DA0AA0CAB0D12133D
:105A730016850A82850B831268B1125C05125C28B5
:105A8300125391EE242F124B31C0E0125C0ED0E082
:105A9300125C542415F582E438F583E4125C541245
:105AA3004605E4125C3C850A82850B83E02416FAE2
:105AB300A3E03400FB1226608E828F83A3A3A3A3EB
:105AC300A3A3A3E0C0E0850A82850B8312444A1294
:105AD30058BC38F583D0E0125C33FAA3E0FB850AA7
:105AE30082850B8312659EE8240BFCE439FD8A82D0
:105AF3008B83E08C828D83125C4F8A828B83A3E03D
:105B0300F50B8C828D83A3E0450B125EC7A3E0FCEB
:105B1300EA2403FA50010BECA2E7E433C0E0E824E3
:105B23000FF582E439F583D0E0F074075C60047804
:105B3300018002780075F00374075CA428F8EA2852
